:020000040000FA
:100000000C9462000C948A000C948A000C948A0070
:100010000C948A000C948A000C948A000C948A0038
:100020000C948A000C948A000C948A000C948A0028
:100030000C948A000C948A000C948A000C948A0018
:100040000C94C7020C948A000C9437030C9411038F
:100050000C948A000C948A000C948A000C948A00F8
:100060000C948A000C948A000000000023002600F3
:10007000290000000008000201000003040700003E
:1000800000000000000000000000250028002B00F8
:1000900000000000240027002A00040404040404D3
:1000A0000404020202020202030303030303010227
:1000B00004081020408001020408102001020408F6
:1000C0001020810511241FBECFEFD8E0DEBFCDBFC9
:1000D00011E0A0E0B1E0E8E7F0E102C005900D9288
:1000E000A836B107D9F722E0A8E6B1E001C01D9219
:1000F000A431B207E1F710E0C2E6D0E004C02197D6
:10010000FE010E943408C136D107C9F70E94690375
:100110000C943A080C940000833081F028F481306C
:1001200099F08230A9F008958730A9F08830C9F09D
:100130008430B1F4809180008F7D03C08091800075
:100140008F7780938000089584B58F7784BD08955C
:1001500084B58F7DFBCF8091B0008F778093B00006
:1001600008958091B0008F7DF9CFCF93DF9390E019
:10017000FC01E255FF4F249186569F4FFC0184916C
:100180008823C9F090E0880F991FFC01E057FF4FCA
:10019000A591B491FC01EA57FF4FC591D49161112B
:1001A0000DC09FB7F8948C91209582238C93888101
:1001B000282328839FBFDF91CF910895623051F4A7
:1001C0009FB7F8943C91822F809583238C93E8818C
:1001D0002E2BEFCF8FB7F894EC912E2B2C938FBF53
:1001E000EACF3FB7F8948091730190917401A09188
:1001F0007501B091760126B5A89B05C02F3F19F077
:100200000196A11DB11D3FBFBA2FA92F982F882796
:10021000BC01CD01620F711D811D911D42E0660F71
:10022000771F881F991F4A95D1F70895AF92BF9203
:10023000CF92DF92EF92FF920F931F93CF93DF93B2
:100240006C017B018B01040F151FEB015E01AE18E1
:10025000BF08C017D10759F06991D601ED91FC9103
:100260000190F081E02DC6010995892B79F7C50130
:10027000DF91CF911F910F91FF90EF90DF90CF9082
:10028000BF90AF900895FC01538D448D252F30E031
:10029000842F90E0821B930B541710F0CF96089593
:1002A00001970895FC01918D828D981761F0A28DC0
:1002B000AE0FBF2FB11D5D968C91928D9F5F9F7386
:1002C000928F90E008958FEF9FEF0895FC01918D3C
:1002D000828D981731F0828DE80FF11D858D90E0A9
:1002E00008958FEF9FEF0895FC01918D228D892F46
:1002F00090E0805C9F4F821B91098F73992708952E
:1003000087E791E00E94740121E0892B09F420E045
:10031000822F089580E090E0892B29F00E948001CF
:1003200081110C9400000895FC01A48DA80FB92F31
:10033000B11DA35ABF4F2C91848D90E001968F730D
:100340009927848FA689B7892C93A089B1898C912C
:10035000837080648C93938D848D981306C002887B
:10036000F389E02D80818F7D80830895EF92FF9245
:100370000F931F93CF93DF93EC0181E0888F9B8DC8
:100380008C8D98131AC0E889F989808185FF15C082
:100390009FB7F894EE89FF896083E889F9898081A5
:1003A0008370806480839FBF81E090E0DF91CF9174
:1003B0001F910F91FF90EF900895F62E0B8D10E096
:1003C0000F5F1F4F0F731127E02E8C8D8E110CC005
:1003D0000FB607FCFACFE889F989808185FFF5CF50
:1003E000CE010E949401F1CFEB8DEC0FFD2FF11D9A
:1003F000E35AFF4FF0829FB7F8940B8FEA89FB898D
:1004000080818062CFCFCF93DF93EC01888D8823EA
:10041000B9F0AA89BB89E889F9898C9185FD03C067
:10042000808186FD0DC00FB607FCF7CF8C9185FF4C
:10043000F2CF808185FFEDCFCE010E949401E9CFFC
:10044000DF91CF910895CF92DF92EF92FF920F93B9
:100450001F93CF93DF9301E411E0D0E0C0E095E07B
:10046000F92EF801219131918F013327F901EE58CE
:10047000FF4F8491F901E255FF4FE490F901E656F0
:10048000FF4FD490DD2011F1209168013091690176
:10049000F29ED001F39EB00D1124AE5FBE4FAC0FA3
:1004A000BD1FCC9081110E948C00ED2DF0E0EE0F6D
:1004B000FF1FEA57FF4FA591B4918FB7F894EC91C5
:1004C000C11012C0E094EE22EC928FBF2196C5308D
:1004D000D10509F0C6CFDF91CF911F910F91FF9009
:1004E000EF90DF90CF900895EE2AEECFFC010190BF
:1004F0000020E9F73197AF01481B590BBC0187E792
:1005000091E00C9416018F929F92AF92BF920F933D
:100510001F93CF93DF93CDB7DEB7A1970FB6F894B3
:10052000DEBF0FBECDBF19A2423008F44AE08E01F3
:100530000F5D1F4F842E912CB12CA12CA50194018D
:100540000E94FE07E62FB901CA01EA30F4F4E05D2B
:10055000D801EE938D01232B242B252B79F790E0E6
:1005600080E0109719F0CD010E947602A1960FB697
:10057000F894DEBF0FBECDBFDF91CF911F910F91D9
:10058000BF90AF909F908F900895E95CE1CF1F924C
:100590000F920FB60F9211242F933F938F939F9337
:1005A000AF93BF9380916F0190917001A091710101
:1005B000B091720130916E0123E0230F2D3758F571
:1005C0000196A11DB11D20936E0180936F01909340
:1005D0007001A0937101B0937201809173019091A9
:1005E0007401A0917501B09176010196A11DB11D14
:1005F0008093730190937401A0937501B093760179
:10060000BF91AF919F918F913F912F910F900FBE0E
:100610000F901F90189526E8230F0296A11DB11D7B
:10062000D2CF1F920F920FB60F9211242F933F93A8
:100630004F935F936F937F938F939F93AF93BF93EA
:10064000EF93FF9387E791E00E949401FF91EF9170
:10065000BF91AF919F918F917F916F915F914F91DA
:100660003F912F910F900FBE0F901F9018951F92E2
:100670000F920FB60F9211242F938F939F93EF93A6
:10068000FF93E0918701F09188018081E0918D01D5
:10069000F0918E0182FD1BC09081809190018F5F4F
:1006A0008F7320919101821741F0E0919001F0E069
:1006B000E958FE4F958F80939001FF91EF919F91A4
:1006C0008F912F910F900FBE0F901F9018958081E2
:1006D000F4CF789484B5826084BD84B5816084BD94
:1006E00085B5826085BD85B5816085BD80916E00D0
:1006F000816080936E001092810080918100826001
:10070000809381008091810081608093810080913D
:1007100080008160809380008091B100846080932C
:10072000B1008091B00081608093B00080917A0028
:10073000846080937A0080917A00826080937A004E
:1007400080917A00816080937A0080917A0080683D
:1007500080937A001092C100E0918701F0918801A6
:1007600082E08083E0918301F09184011082E09126
:100770008501F09186018FEC808310928F01E091CA
:100780008B01F0918C0186E08083E0918901F091EA
:100790008A01808180618083E0918901F0918A01E2
:1007A000808188608083E0918901F0918A01808155
:1007B00080688083E0918901F0918A0180818F7D3A
:1007C000808383E08093010160E08EE00E94B500A9
:1007D00062E082E00E94B500C1E4D1E00BE411E0E8
:1007E0008881229661E00E94B5000C171D07C1F7B1
:1007F0000E9423024CE9242E40E0342E09E010E050
:10080000C0E0D0E0E4E7F0E08491E0EBF0E0F490C9
:10081000F101E490E110D5C0809100018823E1F15D
:100820002FB7F89480916F0190917001A0917101A0
:10083000B09172012FBF40916A0150916B0160919C
:100840006C0170916D01841B950BA60BB70BC397C0
:10085000A105B10508F12FB7F89480916F0190912F
:100860007001A0917101B09172012FBF80936A0154
:1008700090936B01A0936C01B0936D01809168011E
:10088000909169010196B8010E94EA07909369016D
:10089000809368010E94230280E08093000126E992
:1008A000E22EF12C812C912C540180910101F0E475
:1008B0008F9FC001112480937C0080917A00806416
:1008C00080937A0080917A0086FDFCCF6091780059
:1008D00070917900072E000C880B990B0E94C306BB
:1008E0002DEC3CEC4CE85FE30E94780720E030EC14
:1008F0004FE754E40E9420062BE43BE44BE751E42D
:100900000E9478079B01AC01C501B4010E94AF05AC
:100910004B015C0121E0E21AF10839F68BE491E029
:100920000E94760220E030E046E153E4C501B401C4
:100930000E9420066B017C014B015C01AC019B0114
:100940000E94E507882309F44DC085E591E00E94E7
:10095000760281E691E00E94760284E691E00E94B0
:1009600076020E94F1004B015C0184EFC82EDD2469
:10097000D394E12CF12C0E94F100681979098A09BD
:100980009B09683E734081059105A8F381E0C81A70
:10099000D108E108F108E8EE8E0EE3E09E1EA11CEE
:1009A000B11CC114D104E104F10429F7209709F422
:1009B00029CF0E948001882309F424CF0E940000DF
:1009C00021CF81110E948C00EE2DF0E0EE0FFF1F71
:1009D000E859FF4FA591B4918C91F82209F41CCFEE
:1009E00081E05BCF26013701E89477F82FEF3FEFE6
:1009F0004FE75FE7C301B2010E94E50781110DC017
:100A00002FEF3FEF4FE75FE7C301B2010E941B06E4
:100A100018161CF489E591E09ACF2FEF3FEF4FE7CE
:100A20005FE4C701B6010E94730718161CF48DE538
:100A300091E08DCF2FEF3FEF4FE75FECC701B6019D
:100A40000E941B0687FDF3CF20E030E0A901C7011B
:100A5000B6010E941B0687FF0BC06DE287E791E09D
:100A60000E94B60146015701B7FAB094B7F8B094A6
:100A70002EE632E143E05AE3C501B4010E94AF051E
:100A80006B017C010E9492064B015C010E94C10631
:100A90009B01AC01C701B6010E94AE056B017C0150
:100AA0004AE0C501B4010E9483026EE287E791E04B
:100AB0000E94B60194E0B92EBA94BB2009F449CF44
:100AC00020E030E040E251E4C701B6010E9478071F
:100AD0002B013C010E9492066B01F12CE12C4AE0B3
:100AE000C701B6010E948302C701B6010E94C10678
:100AF0009B01AC01C301B2010E94AE056B017C01F8
:100B0000DBCFE7E7F1E01382128288EE93E0A0E00A
:100B1000B0E084839583A683B78383E391E09183D8
:100B2000808385EC90E09587848784EC90E09787BC
:100B3000868780EC90E0918B808B81EC90E0938BAA
:100B4000828B82EC90E0958B848B86EC90E0978B87
:100B5000868B118E128E138E148E08955058BB27DB
:100B6000AA270E94C6050C9439070E942B0738F06B
:100B70000E94320720F039F49F3F19F426F40C94B8
:100B800028070EF4E095E7FB0C942207E92F0E945A
:100B90004A0758F3BA17620773078407950720F0CE
:100BA00079F4A6F50C946C070EF4E0950B2EBA2F91
:100BB000A02D0B01B90190010C01CA01A001112463
:100BC000FF27591B99F0593F50F4503E68F11A160F
:100BD000F040A22F232F342F4427585FF3CF4695A0
:100BE00037952795A795F0405395C9F77EF41F16C2
:100BF000BA0B620B730B840BBAF09150A1F0FF0F8C
:100C0000BB1F661F771F881FC2F70EC0BA0F621F77
:100C1000731F841F48F4879577956795B795F79567
:100C20009E3F08F0B0CF9395880F08F09927EE0FFC
:100C30009795879508950E94FE0608F481E008952F
:100C40000E9434060C9439070E94320758F00E9423
:100C50002B0740F029F45F3F29F00C942207511133
:100C60000C946D070C9428070E944A0768F3992397
:100C7000B1F3552391F3951B550BBB27AA27621798
:100C80007307840738F09F5F5F4F220F331F441FA5
:100C9000AA1FA9F335D00E2E3AF0E0E832D09150D9
:100CA0005040E695001CCAF72BD0FE2F29D0660FC6
:100CB000771F881FBB1F261737074807AB07B0E809
:100CC00009F0BB0B802DBF01FF2793585F4F3AF00F
:100CD0009E3F510578F00C9422070C946D075F3FFE
:100CE000E4F3983ED4F3869577956795B795F79595
:100CF0009F5FC9F7880F911D9695879597F908957D
:100D0000E1E0660F771F881FBB1F62177307840718
:100D1000BA0720F0621B730B840BBA0BEE1F88F727
:100D2000E09508950E94520788F09F5798F0B92FD8
:100D30009927B751B0F0E1F0660F771F881F991F10
:100D40001AF0BA95C9F714C0B13091F00E946C073F
:100D5000B1E008950C946C07672F782F8827B85F4F
:100D600039F0B93FCCF3869577956795B395D9F768
:100D70003EF490958095709561957F4F8F4F9F4F72
:100D80000895E89409C097FB3EF49095809570957E
:100D900061957F4F8F4F9F4F9923A9F0F92F96E9C7
:100DA000BB279395F695879577956795B795F1113C
:100DB000F8CFFAF4BB0F11F460FF1BC06F5F7F4FD9
:100DC0008F4F9F4F16C0882311F096E911C07723EB
:100DD00021F09EE8872F762F05C0662371F096E8F4
:100DE000862F70E060E02AF09A95660F771F881FC3
:100DF000DAF7880F9695879597F90895990F000867
:100E0000550FAA0BE0E8FEEF16161706E807F907DC
:100E1000C0F012161306E407F50798F0621B730B77
:100E2000840B950B39F40A2661F0232B242B252BF8
:100E300021F408950A2609F4A140A6958FEF811D9B
:100E4000811D089597F99F6780E870E060E008953C
:100E50009FEF80EC089500240A94161617061806D2
:100E60000906089500240A941216130614060506AE
:100E70000895092E0394000C11F4882352F0BB0F3F
:100E800040F4BF2B11F460FF04C06F5F7F4F8F4FA2
:100E90009F4F089557FD9058440F551F59F05F3FDD
:100EA00071F04795880F97FB991F61F09F3F79F08C
:100EB00087950895121613061406551FF2CF46950E
:100EC000F1DF08C0161617061806991FF1CF869590
:100ED0007105610508940895E894BB276627772774
:100EE000CB0197F908950E94FE0608F48FEF08954C
:100EF0000E948B070C9439070E942B0738F00E9440
:100F0000320720F0952311F00C9422070C94280747
:100F100011240C946D070E944A0770F3959FC1F34A
:100F2000950F50E0551F629FF001729FBB27F00D97
:100F3000B11D639FAA27F00DB11DAA1F649F6627EC
:100F4000B00DA11D661F829F2227B00DA11D621F3B
:100F5000739FB00DA11D621F839FA00D611D221FF5
:100F6000749F3327A00D611D231F849F600D211DD9
:100F7000822F762F6A2F11249F5750409AF0F1F05C
:100F800088234AF0EE0FFF1FBB1F661F771F881FC5
:100F900091505040A9F79E3F510580F00C942207D4
:100FA0000C946D075F3FE4F3983ED4F386957795F4
:100FB0006795B795F795E7959F5FC1F7FE2B880F6B
:100FC000911D9695879597F908950E94FE06880BC6
:100FD000990B089597FB072E16F4009407D077FD20
:100FE00009D00E94200807FC05D03EF49095819519
:100FF0009F4F0895709561957F4F0895A1E21A2E35
:10100000AA1BBB1BFD010DC0AA1FBB1FEE1FFF1FAC
:10101000A217B307E407F50720F0A21BB30BE40BFC
:10102000F50B661F771F881F991F1A9469F7609543
:101030007095809590959B01AC01BD01CF010895FD
:10104000AA1BBB1B51E107C0AA1FBB1FA617B707EE
:1010500010F0A61BB70B881F991F5A95A9F780950A
:101060009095BC01CD010895EE0FFF1F0590F491FE
:10107000E02D0994F894FFCF010101000000000069
:10108000010000000000010000000000010000005D
:101090000000010000010101000001010000000149
:1010A0000001000000010100000000B6011601432C
:1010B00001030274015201660103000400050006E9
:1010C000000700566F6C74616A653A20006E616EAD
:1010D00000696E66006F7666002056000D0A0000FB
:107E0000112484B714BE81FFF0D085E080938100F7
:107E100082E08093C00088E18093C10086E0809377
:107E2000C20080E18093C4008EE0C9D0259A86E02C
:107E300020E33CEF91E0309385002093840096BBD3
:107E4000B09BFECF1D9AA8958150A9F7CC24DD24C4
:107E500088248394B5E0AB2EA1E19A2EF3E0BF2EE7
:107E6000A2D0813461F49FD0082FAFD0023811F036
:107E7000013811F484E001C083E08DD089C08234E0
:107E800011F484E103C0853419F485E0A6D080C0E4
:107E9000853579F488D0E82EFF2485D0082F10E0AE
:107EA000102F00270E291F29000F111F8ED06801E7
:107EB0006FC0863521F484E090D080E0DECF843638
:107EC00009F040C070D06FD0082F6DD080E0C81688
:107ED00080E7D80618F4F601B7BEE895C0E0D1E017
:107EE00062D089930C17E1F7F0E0CF16F0E7DF06D8
:107EF00018F0F601B7BEE89568D007B600FCFDCFD4
:107F0000A601A0E0B1E02C9130E011968C91119780
:107F100090E0982F8827822B932B1296FA010C0160
:107F200087BEE89511244E5F5F4FF1E0A038BF0790
:107F300051F7F601A7BEE89507B600FCFDCF97BE46
:107F4000E89526C08437B1F42ED02DD0F82E2BD052
:107F50003CD0F601EF2C8F010F5F1F4F84911BD097
:107F6000EA94F801C1F70894C11CD11CFA94CF0C13
:107F7000D11C0EC0853739F428D08EE10CD085E9AC
:107F80000AD08FE07ACF813511F488E018D01DD067
:107F900080E101D065CF982F8091C00085FFFCCF94
:107FA0009093C60008958091C00087FFFCCF809118
:107FB000C00084FD01C0A8958091C6000895E0E648
:107FC000F0E098E1908380830895EDDF803219F02E
:107FD00088E0F5DFFFCF84E1DECF1F93182FE3DFCA
:107FE0001150E9F7F2DF1F91089580E0E8DFEE27F6
:047FF000FF270994CA
:027FFE00040479
:00000001FF
